S02200004942542D3220537065656420436F6E74726F6C6C6572204142482E7372656384
S11300000C943E000C945B000C945B000C945B001D
S11300100C945B000C945B000C945B000C946F07D5
S11300200C945B000C945B000C945B000C945B00E0
S11300300C945B000C945B000C945B000C945B00D0
S11300400C945B000C945B000C9424080C944F08F3
S11300500C945B000C945B000C945B000C945B00B0
S11300600C945B000C945B001D04250448045804A4
S113007068048004080526054405DB0511241FBE19
S1130080CFEFD8E0DEBFCDBF11E0A0E0B1E0E6E302
S1130090F8E102C005900D92AC37B107D9F722E020
S11300A0ACE7B1E001C01D92A43FB207E1F70E94A2
S11300B0A8030C94190C0C94000087EC80937A002C
S11300C010927B0080E480937C000895ECE7F0E0DC
S11300D09081907F908390818F70982B9083EAE732
S11300E0F0E08081806C8083808184FFFDCFEAE72B
S11300F0F0E0808180618083809178002091790094
S113010090E0922B0895FC0184819581892B69F4F8
S113011020813181C901062E02C0880F991F0A94DB
S1130120E2F7821B930B958384832481358180813C
S11301309181820F931F9C0102C0369527956A9581
S1130140E2F733832283821B930B95838483089580
S1130150CF93DF93FC01DA0185E4EF0119928A95CC
S1130160E9F7748763878D919C91119791838083BC
S113017012968D919C911397938382831A968C91F6
S11301801A97828719968C911997818715968D9164
S11301909C9116979683858317968D919C911897B9
S11301A09087878314968C918483178A168ADF91AB
S11301B0CF910895E0914102F0914202309731F4D9
S11301C090934202809341020895F9012689378968
S11301D021153105D1F7978B868B0895E42FF0E034
S11301E03C96EE0FFF1FE80FF91F7183608321E037
S11301F030E002C0220F331F4A95E2F7FC01368D2E
S1130200232B268F089521E030E002C0220F331FF4
S11302106A95E2F7FC01378D232B278F08950F93FE
S11302201F9310E0D8011896AA0FBB1FAA0FBB1F7B
S1130230A80FB91F6D937C9361E070E0FB0102C0CD
S1130240EE0FFF1F4A95E2F7AF01F801EE0FFF1F13
S1130250EE0FFF1FE80FF91F42A3222349F0000FFE
S1130260111F000F111FFC01E00FF11F43A308C071
S1130270000F111F000F111FFC01E00FF11F13A24B
S11302801F910F910895FC01E05CFF4F21E030E0E5
S113029002C0220F331F6A95E2F78081282B208346
S11302A008957F928F929F92AF92BF92CF92DF92E6
S11302B0EF92FF920F931F93CF93DF93C09141026C
S11302C0D0914202209709F442C101E010E0C12C10
S11302D0712CDD24D3948FB7F894EB85FC852081B1
S11302E031818FBFFE0180E090E0812C912C54017C
S11302F0A0A1B1A15C9142A1452353A1451781F06E
S1130300A801082E02C0440F551F0A94E2F7052ED7
S1130310000C660B770B842A952AA62AB72A11C0EB
S1130320A801082E02C0440F551F0A94E2F7409515
S11303305095052E000C660B770B84229522A6227D
S1130340B722019634968830910591F6FE01E05C5F
S1130350FF4F808190E0A0E0B0E088229922AA2299
S1130360BB22C4010E94D6084D855E85B901641B79
S1130370750BDB011197A13090EFB90710F4FB0165
S113038002C0EC2DF72DEA80FB80EE15FF0508F482
S113039045C09C89992351F01C8ADE01AC5BBF4F98
S11303A09C91FE01ED5BFF4F90838C929C8199237D
S11303B039F0FE01EC5BFF4F90813297908309C0C6
S11303C09B89911106C0FE01EC5BFF4F908132972F
S11303D090836F857889460F571F5E874D8799856F
S11303E09923A9F0AB010A8402C0569547950A9453
S11303F0E2F74115510509F4A801EF81F885641B62
S1130400750B6E177F0708F4BF01788B6F87DB8A43
S113041081149104A104B10449F028C08114910409
S1130420A104B10419F58B89882341F0FE01EC5B2A
S1130430FF4F8081319780831B8A10C0A130B04F59
S113044010F06C2D772D888199816817790730F029
S1130450FE01EC5BFF4F8081339780831D8AFE0190
S1130460EC5BFF4F10823E872D872DC04D894817C6
S113047068F43E872D874D815E81588B4F878D8B25
S1130480FE01EC5BFF4F80821C8A1DC0882359F05B
S1130490841748F43E872D874D815E81588B4F87A2
S11304A08D8BDC8A10C08C8981110DC0FE01EC5B40
S11304B0FF4F808190E0A0E0B0E088169906AA067C
S11304C0BB0609F01D8A3A8B298BFF8C8E8DF8228E
S11304D0F0FE11C0FE01EF5BFF4F4081442359F051
S11304E050E060E070E0E88DF98DCE010995FE01E1
S11304F0EF5BFF4F1082F1FE11C0FE01EE5BFF4F78
S11305004081442359F050E060E070E0EA8DFB8DB7
S1130510CE010995FE01EE5BFF4F1082F2FE11C081
S1130520FE01ED5BFF4F4081442359F050E060E051
S113053070E0EC8DFD8DCE010995FE01ED5BFF4F62
S113054010820E88DF89C02D209709F0C4CEDF9178
S1130550CF911F910F91FF90EF90DF90CF90BF90BC
S1130560AF909F908F907F900895CF93C42F40FFBA
S11305701AC080E091E00E94AD08809155029091EC
S113058056022091ED023091EE022817390738F413
S113059021E02093A4029093EE028093ED02109246
S11305A0560210925502C1FF1CC083E191E00E94E3
S11305B0AD0880914F02909150022091EF0230914A
S11305C0F0028217930738F421E02093A402909359
S11305D0F0028093EF028FEF9FEF9093500280938D
S11305E04F02EDEEF2E02281338180819181821B02
S11305F0930B96958795820F931F95838483CF9150
S1130600089580E18AB985E087B91BB884E088B988
S1130610419A259A52985A9A53985B9A519A5098AB
S1130620589A209A579A219A229A2D98089581EAE5
S11306308093800083E08093810082E08093B00007
S113064094E09093B10099EF9093B300809370007D
S113065008950F93CF93DF93CDB7DEB72B970FB6E3
S1130660F894DEBF0FBECDBF8EE190E09A838983FC
S113067084EF91E09F838E8389E190E09987888756
S113068083E08B871A861D8286E990E09C838B83A6
S1130690AE014F5F5F4F6CE972E087E592E00E9424
S11306A0A80000E021E042E069E270E087E592E022
S11306B00E940F0101E021E043E069E270E087E578
S11306C092E00E940F0160E087E592E00E944301FE
S11306D061E087E592E00E94430142E065EB72E04D
S11306E087E592E00E94EE0062E087E592E00E94D6
S11306F0030187E592E00E94DA002B960FB6F89486
S1130700DEBF0FBECDBFDF91CF910F910895109240
S11307108B0010928A0010928900109288008091B8
S1130720EB029091EC028C599F4F9093440280937A
S1130730430208952091EB023091EC02209530950C
S1130740280F391F81E02130304F08F480E00895EC
S11307500E9401030E945D000E9417030E94290366
S113076080E190E80E9479080E94E207811102C0AA
S11307700E9486078FEF92E09093500280934F027D
S113078010925602109255021092A90286E291E04C
S11307900E94AD0878941092AA02C5E4D2E081E0E8
S11307A00E9466009983888363E0CE010E948300DF
S11307B08FE39CE90197F1F700C000008091AA0241
S11307C08F5F8093AA02843650F30DEE12E0C5E4E5
S11307D0D2E00F2EFAE84F2E512CF02D0F2EF9E90E
S11307E06F2EF2E07F2EF02D0F2EF6E38F2EF1E028
S11307F09F2EF02D0F2EFBEAEF2EF2E0FF2EF02DB0
S11308000F2EFCE42F2EF1E03F2EF02DF894809172
S11308109C0290919D029093EC028093EB02789459
S1130820E091A9028E2F90E08A30910508F061C210
S1130830FC01EC5CFF4F0C94D0080E948703F30189
S11308401082F1E0F093A9025CC2F301808180FF81
S11308501CC393E09093A9022A813B812250310961
S1130860F80131832083F1E0F093A4028E7FF30139
S113087080830BC392E09093A9022A813B812E5F6F
S11308803F4FF801338322838D7FF301808339C284
S1130890F301808180FF35C284E08093A9028A81BC
S11308A09B810297F80191838083F301108229C20E
S11308B0F301808181FF25C284E08093A9028A81AB
S11308C09B810296F80193838283F301108219C2FB
S11308D0F801848195814A815B819C018417950785
S11308E008F49A014817590708F4CA01281B390B60
S11308F02431310508F005C2F5E0F093A90209C2DC
S1130900F20180819181892B31F4E8E8F0E0808163
S11309109181892B89F180914D0290914E020E9420
S11309209A038823F1F08091EB029091EC020196F6
S113093090934E0280934D02F20180819181892B24
S113094029F080819181019791838083E8E8F0E028
S113095080819181892B29F08081918101979183F4
S113096080838091EB029091EC028C599F4F90937D
S1130970440280934302C1C18A819B8187319105DE
S1130980A8F0F801248135812A5031098217930790
S113099068F427E02093A9022091EB023091EC0245
S11309A02C593F4F3093A6022093A502893EF3E0D1
S11309B09F0700F5F80124813581265F3F4F2817F2
S11309C03907C0F486E08093A9028091EB029091EC
S11309D0EC028C599F4F9093A6028093A5028091BC
S11309E0A0029091A102805D9A480E949A0381110D
S11309F00CC087C18091A0029091A102805D9A48A9
S1130A000E949A03882309F478C11092A90279C13B
S1130A108091A5029091A6020E949A03882309F46A
S1130A2070C188E08093A9028091EB029091EC025E
S1130A309C012C593F4F30934402209343029093DE
S1130A404E0280934D02289A5F9A57C18091A50265
S1130A509091A6020E949A03882309F452C1F9E0F6
S1130A60F093A9028091EB029091EC029C012C5925
S1130A703F4F309344022093430290934E0280935D
S1130A804D02289A5F9A39C1A090EB02B090EC0213
S1130A90C5018C599F4F9093440280934302F20105
S1130AA0C080D180D0924C02C0924B02F8012481C4
S1130AB03581608171818A819B816817790708F487
S1130AC0CB01A901465F5F4F8417950708F4CA015B
S1130AD0821B930BF6EEF89FA001F99F500D112491
S1130AE0CA018C5F98406A507109621B730B0E94A3
S1130AF0BC08675E7F4F70935402609353024A9917
S1130B000AC0663F710538F08FEF90E0909354026D
S1130B1080935302BFC16A31710540F410925402AC
S1130B2010925302C114D10461F0C6C1C114D1049E
S1130B3009F0B0C18091530290915402892B09F0BD
S1130B40A9C195E09093A90280914D0290914E0223
S1130B500E949A03882309F4DCC0C501029690938D
S1130B604E0280934D028091530290915402C81614
S1130B70D90658F4EFEFCE1ADE0AD0924C02C09296
S1130B804B02F201D182C082B8C08C159D0508F0D9
S1130B90B4C0FFEFAF1ABF0AB0924E02A0924D024A
S1130BA021E0C21AD108D0924C02C0924B02F20149
S1130BB0D182C082A2C0A090EB02B090EC02C50129
S1130BC08C599F4F9093440280934302E8E8F0E0ED
S1130BD0C080D180D0924C02C0924B02F801228195
S1130BE0338164817581C901860F971F4A815B81B6
S1130BF0841B950B6817790708F4CB01A901465F9C
S1130C005F4F8417950708F4CA01821B930BF6EE15
S1130C10F89FA001F99F500D1124CA018C5F9840E0
S1130C206A507109621B730B0E94BC08675E7F4F98
S1130C3070935402609353024B990AC0663F710546
S1130C4038F08FEF90E090935402809353022BC1BD
S1130C506A31710540F41092540210925302C11487
S1130C60D10461F032C1C114D10409F01CC18091D6
S1130C70530290915402892B09F015C195E0909389
S1130C80A90280914D0290914E020E949A038823FA
S1130C9009F43FC0C501029690934E0280934D0221
S1130CA08091530290915402C816D90660F4EFEF74
S1130CB0CE1ADE0AD0924C02C0924B02E8E8F0E071
S1130CC0D182C0821AC08C159D05B8F4FFEFAF1A0B
S1130CD0BF0AB0924E02A0924D0221E0C21AD1087E
S1130CE0D0924C02C0924B02E8E8F0E0D182C0827C
S1130CF004C0F1E0F093A90204C08091A9028530F8
S1130D0041F08091EB029091EC029093A1028093C8
S1130D10A00280914302909144020E949A03882386
S1130D2059F08091EB029091EC02C29690934402A8
S1130D30809343025F9828980E9451018091A702F2
S1130D409091A8020E949A03882391F08091EB026B
S1130D509091EC020A969093A8028093A70281E0F6
S1130D600E9466009983888363E0CE010E94830019
S1130D708091A2029091A3020E949A03882309F40D
S1130D804DC0F80181818F9380818F9385818F93EA
S1130D9084818F9383818F9382818F938B818F93AF
S1130DA08A818F939F928F92FF92EF920E94FD0807
S1130DB0C7010E94AD088091EB029091EC02059668
S1130DC09093A3028093A20295B191708BB187FB9B
S1130DD0882780F9E8E8F0E040815181F201208120
S1130DE031811F929F931F928F935F934F933F93F1
S1130DF02F938091A9021F928F933F922F92FF927B
S1130E00EF920E94FD08C7010E94AD088DB79EB7FE
S1130E104A960FB6F8949EBF0FBE8DBF4A990DC077
S1130E208A819B81209155023091560228173907F7
S1130E3020F490935602809355024B990DC08A81F9
S1130E409B8120914F02309150028217930720F426
S1130E509093500280934F028091A0029091A1023E
S1130E6088519C4F0E949A03882309F4CFCC809127
S1130E70A402882309F4CACC0E949F0784E691E067
S1130E800E94AD081092A402C1CCF301808181FDBF
S1130E90F1CC37CF80914D0290914E020E949A037B
S1130EA081115BCE2ECF80914D0290914E020E9413
S1130EB09A038111EFCE25CF80914D0290914E027D
S1130EC00E949A03811149CE1CCF80914D029091CA
S1130ED04E020E949A03882309F413CFDBCE1F929B
S1130EE00F920FB60F9211248F939F9380919C02BF
S1130EF090919D02019690939D0280939C029F91F4
S1130F008F910F900FBE0F901F901895EDEEF2E0A9
S1130F1084E692E0918380838CE991E093838283D9
S1130F2080E092E09583848323EF32E080E0919126
S1130F308927E217F307D9F78093F30208951F93E3
S1130F40CF93DF93CDB7DEB727970FB6F894DEBF04
S1130F500FBECDBFEDEEF2E023EF32E080E09191E1
S1130F6089272E173F07D9F78093F30215E0F999E3
S1130F70FECF47E050E060E070E08DEE92E00E942A
S1130F80C00BF999FECF47E050E060E071E0CE017C
S1130F9001960E94B00B115059F047E050E0BE0199
S1130FA06F5F7F4F8DEE92E00E94F008892BF9F677
S1130FB027960FB6F894DEBF0FBECDBFDF91CF9159
S1130FC01F910895FF920F931F93CF93DF93CDB793
S1130FD0DEB727970FB6F894DEBF0FBECDBF0F2E36
S1130FE0F5E0FF2EF02D8E01095F1F4FF999FECF1A
S1130FF047E050E060E070E0CE0101960E94B00B43
S1131000FA94FF20A1F0FE01319680E091918927A6
S1131010E017F107D9F79F819813E8CF87E0FE0125
S11310203196ADEEB2E001900D928A95E1F78F2DE5
S113103027960FB6F894DEBF0FBECDBFDF91CF91D8
S11310401F910F91FF9008951F920F920FB60F9268
S113105011242F938F939F93EF93FF938091C0005C
S11310602091C6008871E0917E01EF5FEF77909147
S11310707D01E91739F0E0937E01F0E0EF57FE4F70
S1131080208301C082E080937C01FF91EF919F91C6
S11310908F912F910F900FBE0F901F9018951F9254
S11310A00F920FB60F9211248F939F93EF93FF9398
S11310B09091800180917F01981769F0E0917F0100
S11310C0EF5FEF73E0937F01F0E0EF5FFD4F80810E
S11310D08093C60005C0E1ECF0E080818F7D8083C1
S11310E0FF91EF919F918F910F900FBE0F901F90E2
S11310F018951092800110927F0110927E01109237
S11311007D01992324F422E02093C0009F779093DB
S1131110C5008093C40088E98093C10086E0809371
S1131120C2000895909180019F5F9F7320917F0179
S1131130921306C020917F012F5F2F7320937F01AC
S1131140E92FF0E0EF5FFD4F808390938001E1ECA5
S1131150F0E08081806280830895CF93DF93EC0177
S11311608881882331F021960E9492088991811107
S1131170FBCFDF91CF910895AA1BBB1B51E107C0A0
S1131180AA1FBB1FA617B70710F0A61BB70B881F13
S1131190991F5A95A9F780959095BC01CD010895A2
S11311A0EE0FFF1F0590F491E02D09940E94E008D2
S11311B08F93892F0E94E00899270F90800D08953E
S11311C0082E817006940694811D0694811D069450
S11311D0811D0694811D0694811D0694801D089529
S11311E0FB01DC0104C08D910190801921F4415070
S11311F05040C8F7881B990B0895AEE0B0E0E3E0D7
S1131200F9E00C94F00B0D891E8986E08C831A8317
S113121009838FEF9FE79E838D83AE01475E5F4F07
S11312206F89788DCE0101960E941F09EF81F885A0
S1131230E00FF11F10822E96E4E00C940C0CABE04E
S1131240B0E0E5E2F9E00C94E20B6C017B018A0169
S1131250FC0117821682838181FFCCC1CE010196E5
S11312603C01F6019381F70193FD859193FF8191F0
S11312707F01882309F4BAC1853239F493FD85913D
S113128093FF81917F01853229F4B60190E00E9499
S1131290160BE7CF912C212C312CFFE1F315D8F05C
S11312A08B3279F038F4803279F08332A1F4232D33
S11312B020611DC08D3261F0803369F4232D2160DB
S11312C016C0832D8260382EE32DE4603E2E2AC0A2
S11312D0F32DF8601DC037FC2DC020ED280F2A30F7
S11312E040F08E32B9F436FC81C1232D2064322EB5
S11312F019C036FE06C08AE0989E200D1124922E55
S113130011C0EAE02E9E200D1124222EF32DF0624E
S11313103F2E08C08C3621F4832D8068382E02C0FD
S1131320883641F4F70193FD859193FF81917F0104
S11313308111B3CF982F9F7D9554933028F40C5F7F
S11313401F4F9FE399830DC0833631F0833771F0CB
S1131350833509F059C021C0F801808189830E5F6B
S11313601F4F88248394912C530113C02801F2E069
S11313704F0E511CF801A080B18036FE03C0692DC8
S113138070E002C06FEF7FEFC5010E940B0B4C01B0
S11313908201F32DFF773F2E16C0280122E0420E72
S11313A0511CF801A080B18036FE03C0692D70E0A5
S11313B002C06FEF7FEFC5010E94000B4C01F32DBB
S11313C0F0683F2E820133FC1BC0822D90E088160A
S11313D09906B0F4B60180E290E00E94160B2A94BC
S11313E0F4CFF50137FC859137FE81915F01B60199
S11313F090E00E94160B21102A9421E0821A910891
S11314008114910471F7E8C0843611F0893641F5EE
S1131410F80137FE07C060817181828193810C5F7E
S11314201F4F08C060817181072E000C880B990B37
S11314300E5F1F4FF32DFF763F2E97FF09C0909547
S11314408095709561957F4F8F4F9F4FF0683F2E29
S11314502AE030E0A3010E94520B882E861845C072
S1131460853731F4232D2F7EB22E2AE030E025C0BB
S1131470932D997FB92E8F36C1F018F4883579F001
S1131480B5C0803719F0883721F0B0C0E92FE0618A
S1131490BE2EB4FE0DC0FB2DF460BF2E09C034FE79
S11314A00AC0292F2660B22E06C028E030E005C00D
S11314B020E130E002C020E132E0F801B7FE07C0CD
S11314C060817181828193810C5F1F4F06C06081AE
S11314D0718180E090E00E5F1F4FA3010E94520BC8
S11314E0882E8618FB2DFF773F2E36FE0DC0232D48
S11314F02E7FA22E891458F434FE0BC032FC09C08E
S1131500832D8E7EA82E05C0B82CA32C03C0B82C26
S113151001C0B92CA4FE0FC0FE01E80DF11D8081AD
S1131520803321F49A2D997EA92E09C0A2FE06C00B
S1131530B394B39404C08A2D867809F0B394A3FCC1
S113154011C0A0FE06C0B21488F4280C922C9B187B
S11315500EC0B21460F4B60180E290E00E94160B53
S1131560B394F7CFB21418F42B1802C0982C212C82
S1131570A4FE10C0B60180E390E00E94160BA2FE08
S113158017C0A1FC03C088E790E002C088E590E0A2
S1131590B6010CC08A2D867859F0A1FE02C08BE2F8
S11315A001C080E2A7FC8DE2B60190E00E94160B18
S11315B0891438F4B60180E390E00E94160B9A94E3
S11315C0F7CF8A94F301E80DF11D8081B60190E014
S11315D00E94160B8110F5CF222009F442CEB601E9
S11315E080E290E00E94160B2A94F6CFF6018681E1
S11315F0978102C08FEF9FEF2B96E2E10C94FE0BD4
S1131600FC010590615070400110D8F780959095C9
S11316108E0F9F1F0895FC016150704001900110CE
S1131620D8F7809590958E0F9F1F08950F931F9361
S1131630CF93DF93FB01238121FD03C08FEF9FEF45
S11316402CC022FF16C04681578124813581421760
S1131650530744F4A081B1819D012F5F3F4F318333
S113166020838C93268137812F5F3F4F37832683D6
S113167014C08B01EC01FB010084F185E02D099578
S1131680892BE1F6D80116968D919C9117970196B6
S113169017969C938E931697CE01DF91CF911F914D
S11316A00F910895FA01AA27283051F1203181F1D0
S11316B0E8946F936E7F6E5F7F4F8F4F9F4FAF4F56
S11316C0B1E03ED0B4E03CD0670F781F891F9A1F69
S11316D0A11D680F791F8A1F911DA11D6A0F711D1D
S11316E0811D911DA11D20D009F468943F912AE029
S11316F0269F11243019305D3193DEF6CF01089511
S1131700462F4770405D4193B3E00FD0C9F7F6CF41
S1131710462F4F70405D4A3318F0495D31FD405209
S1131720419302D0A9F7EACFB4E0A695979587959F
S113173077956795BA95C9F700976105710508957E
S11317409B01AC010A2E069457954795379527952A
S1131750BA95C9F7620F731F841F951FA01D0895C2
S1131760DC01CB01FC01F999FECF06C0F2BDE1BD5D
S1131770F89A319600B40D9241505040B8F708954C
S1131780DC01A40FB51F4150504048F0CB01840F39
S1131790951F2E910E94D10B41505040D0F70895CF
S11317A0262FF999FECF92BD81BDF89A019700B416
S11317B0021639F01FBA20BD0FB6F894FA9AF99AB6
S11317C00FBE08952F923F924F925F926F927F9235
S11317D08F929F92AF92BF92CF92DF92EF92FF923D
S11317E00F931F93CF93DF93CDB7DEB7CA1BDB0BE9
S11317F00FB6F894DEBF0FBECDBF09942A8839888E
S113180048885F846E847D848C849B84AA84B98494
S1131810C884DF80EE80FD800C811B81AA81B981A0
S1131820CE0FD11D0FB6F894DEBF0FBECDBFED01B4
S10918300895F894FFCFB7
S113183652656C656173656420466F727761726484
S11318460D0A0052656C65617365642052657665A0
S11318567273650D0A004E656420776173206865AE
S11318667265210D0A002533752C202533752C202D
S11318762533752C20253375202D20002532752C13
S1131886202533752C202533752C2025752C2025F1
S1131896750D0A000D0A0D0A536176696E67204DAF
S10F18A6656D6F7279210D0A0D0A0000B7
S9030000FC
